:100000000C9496000C94BE000C94BE000C94BE00A0
:100010000C94BE000C94BE000C94BE000C94BE0068
:100020000C94BE000C94BE000C94BE000C94BE0058
:100030000C94BE000C94BE000C94BE000C94BE0048
:100040000C9457090C94BE000C94C7090C94A10998
:100050000C94BE000C94BE000C94BE000C94BE0028
:100060000C94BE000C94BE0044485478782074650B
:1000700073742100C2B04600C2B0432000C2B04633
:1000800020204865617420696E6465783A2000C25A
:10009000B043200025202054656D70657261747531
:1000A00072653A200048756D69646974793A200078
:1000B0004661696C656420746F20726561642066B6
:1000C000726F6D204448542073656E736F72210007
:1000D00000000000240027002A0000000000250086
:1000E00028002B00000000080002010000030407A4
:1000F00000000000000000000000000023002600B7
:10010000290004040404040404040202020202029A
:1001100003030303030301020408102040800102CB
:1001200004081020010204081020F90911241FBE40
:10013000CFEFD8E0DEBFCDBF11E0A0E0B1E0E0EE50
:10014000FDE102C005900D92AE33B107D9F722E070
:10015000AEE3B1E001C01D92AF30B207E1F710E0AD
:10016000C6E9D0E004C02197FE010E94E80EC5391F
:10017000D107C9F70E94630A0C94EE0E0C9400009C
:10018000CF92DF92EF92FF92CF93DF93C82F8091AF
:1001900002028C3009F45EC038F48B30F1F060E07C
:1001A00070E080EC9FE74FC085518230C0F7D0915E
:1001B000FE016D2F70E0762F662766277F7780918E
:1001C000FF01682B90E080E00E94420D2DEC3CEC9A
:1001D0004CEC5DE30E94F90D59C06091FE0170E0A6
:1001E00090E080E00E94420D6B017C01D091FF0104
:1001F000D7FF0AC0AC019B0160E070E080E89FEB94
:100200000E942F0C6B017C01DF706D2F70E090E07D
:1002100080E00E94440D2DEC3CEC4CEC5DE30E9430
:10022000F90DA70196010E94300CCC2361F026E65F
:1002300036E646EE5FE30E94F90D20E030E040E054
:1002400052E40E94300CDF91CF91FF90EF90DF904D
:10025000CF900895D091FE016D2F70E090E080E086
:100260000E94420D6B017C016091FF016F7070E094
:1002700090E080E00E94440D2DEC3CEC4CEC5DE302
:100280000E94F90DA70196010E94300CD7FFCDCF37
:100290009058CBCFCF92DF92EF92FF92CF93DF9324
:1002A000B0910302A0E08111AB2F8091040290E095
:1002B000880F991FAC0148505F4FC0900902D09041
:1002C0000A02E0900B02F0900C0230E020E0FA010C
:1002D000C591D491E881B90190E080E0EB23EA1365
:1002E0000AC02F5F3F4F6C157D058E059F0578F383
:1002F0006FEF7FEFCB01DF91CF91FF90EF90DF9019
:10030000CF90089590E0FC01EC51FF4F2491FC0147
:10031000EA5EFE4F3491FC01EE5FFE4FE491EE2366
:10032000C9F0222339F0233001F1A8F4213019F16A
:10033000223029F1F0E0EE0FFF1FE652FF4FA591AA
:10034000B4918FB7F894EC91611126C030953E239B
:100350003C938FBF08952730A9F02830C9F024308E
:1003600049F7809180008F7D03C0809180008F7756
:1003700080938000DFCF84B58F7784BDDBCF84B5D9
:100380008F7DFBCF8091B0008F778093B000D2CF6C
:100390008091B0008F7DF9CF3E2BDACFCF93DF93E2
:1003A00090E0FC01EA5EFE4F24918E5F9E4FFC01BF
:1003B00084918823D1F090E0880F991FFC01E053CD
:1003C000FF4FA591B491FC01E652FF4FC591D49126
:1003D000623071F49FB7F8943C91822F809583230B
:1003E0008C93E8812E2B28839FBFDF91CF910895B6
:1003F0008FB7F894EC912E2B2C938FBFF6CF3FB78D
:10040000F89480913F0190914001A0914101B091F9
:10041000420126B5A89B05C02F3F19F00196A11DEA
:10042000B11D3FBFBA2FA92F982F8827BC01CD013E
:10043000620F711D811D911D42E0660F771F881F9D
:10044000991F4A95D1F708958F929F92AF92BF92CC
:10045000CF92DF92EF92FF924B015C010E94FF016D
:100460006B017C010E94FF016C197D098E099F09B7
:10047000683E734081059105A8F321E0821A910836
:10048000A108B10888EEC80E83E0D81EE11CF11C5B
:1004900081149104A104B10429F7FF90EF90DF903B
:1004A000CF90BF90AF909F908F900895CF92DF92A2
:1004B000EF92FF920F931F93CF93DF93CDB7DEB7E9
:1004C000C054D1400FB6F894DEBF0FBECDBF2FB7DA
:1004D000F8948091430190914401A0914501B0911D
:1004E00046012FBF4091050250910602609107021C
:1004F000709108028C019D01041B150B260B370B14
:10050000B901A801403D57406105710590F4809103
:100510000D02C05CDE4F0FB6F894DEBF0FBECDBF3C
:10052000DF91CF911F910F91FF90EF90DF90CF90CF
:1005300008958093050290930602A0930702B0935A
:100540000802109200021092FF011092FE01109218
:10055000FD011092FC0162E0809101020E94CE0137
:1005600061E070E080E090E00E94240261E0809110
:1005700001020E94CE0160E0809101020E9482018E
:10058000809102028551823020F58BE291E1019742
:10059000F1F762E0809101020E94CE0180910E028B
:1005A00090E08230910538F0880F991F880F991FCD
:1005B00005970197F1F7F89480E00E944A016F3F98
:1005C0007F4F8F4F9F4F61F410920D02789480E01F
:1005D000A0CF64E170E080E090E00E942402D9CFD7
:1005E00081E00E944A016F3F7F4F8F4F9F4F61F321
:1005F0008E010F5F1F4F6E018FEBC81A8EEFD80A66
:10060000780180E00E944A01F70160837183828350
:10061000938381E00E944A01F70164837583868396
:100620009783F8E0EF0EF11CEC14FD0451F7789479
:1006300030E020E0F801C080D180E280F380448186
:10064000558166817781FFEFCF16DF06EF06FF0643
:1006500031F04F3F8FEF58076807780719F4109271
:100660000D02B5CFF90183E0F595E7958A95E1F79D
:10067000E450FE4F8081880FC416D506E606F706C3
:1006800010F180832F5F3F4F085F1F4F28323105E5
:1006900089F6409100022091FC018091FD01280F14
:1006A0003327331F8091FE01280F311D8091FF01F8
:1006B000820F932F911D99274817190681F681E023
:1006C00080930D0226CF8160DCCFAF92BF92CF9294
:1006D000DF92EF92FF920F931F93CF93DF936C0102
:1006E0007B018B01040F151FEB015E01AE18BF08E3
:1006F000C017D10759F06991D601ED91FC91019095
:10070000F081E02DC6010995892B79F7C501DF91AC
:10071000CF911F910F91FF90EF90DF90CF90BF90FE
:10072000AF900895FC01538D448D252F30E0842F28
:1007300090E0821B930B541710F0CF960895019709
:100740000895FC01918D828D981761F0A28DAE0FF6
:10075000BF2FB11D5D968C91928D9F5F9F73928F7D
:1007600090E008958FEF9FEF0895FC01918D828DA9
:10077000981731F0828DE80FF11D858D90E0089576
:100780008FEF9FEF0895FC01918D228D892F90E0CE
:10079000805C9F4F821B91098F739927089587E48E
:1007A00091E00E94C30321E0892B09F420E0822F0D
:1007B000089580E090E0892B29F00E94CF038111F9
:1007C0000C9400000895FC01A48DA80FB92FB11D51
:1007D000A35ABF4F2C91848D90E001968F73992777
:1007E000848FA689B7892C93A089B1898C91837055
:1007F00080648C93938D848D981306C00288F3894E
:10080000E02D80818F7D80830895EF92FF920F937A
:100810001F93CF93DF93EC0181E0888F9B8D8C8DAC
:1008200098131AC0E889F989808185FF15C09FB7A0
:10083000F894EE89FF896083E889F9898081837063
:10084000806480839FBF81E090E0DF91CF911F9112
:100850000F91FF90EF900895F62E0B8D10E00F5F33
:100860001F4F0F731127E02E8C8D8E110CC00FB609
:1008700007FCFACFE889F989808185FFF5CFCE01A1
:100880000E94E303F1CFEB8DEC0FFD2FF11DE35A36
:10089000FF4FF0829FB7F8940B8FEA89FB89808124
:1008A0008062CFCF0F931F93CF93DF938C01D0E063
:1008B000C0E0F801EC0FFD1F6491662341F087E46E
:1008C00091E00E940504892B11F02196F2CFCE0110
:1008D000DF91CF911F910F910895CF93DF93EC019A
:1008E000888D8823B9F0AA89BB89E889F9898C9118
:1008F00085FD03C0808186FD0DC00FB607FCF7CFD4
:100900008C9185FFF2CF808185FFEDCFCE010E94D3
:10091000E303E9CFDF91CF910895089590E080E05F
:1009200008954F925F926F927F928F929F92AF92B3
:10093000BF92CF92DF92EF92FF920F93CF93DF930C
:10094000CDB7DEB728970FB6F894DEBF0FBECDBF88
:100950006B017C0149015A0101110EC026E636E601
:1009600046EE5FE30E94F90D20E030E040E052E403
:100970000E94300C6B017C0120E030E048E852E43A
:10098000C701B6010E942F0C2AE939E949E95FE362
:100990000E94F90D2B013C0120E030E044E752E4D5
:1009A000C701B6010E94300C9B01AC01C301B2012A
:1009B0000E94300C2B013C0122E133E840EC5DE366
:1009C000C501B4010E94F90D9B01AC01C301B20144
:1009D0000E94300C20E030E040E05FE30E94F90D1F
:1009E0002B013C0120E030E04EE952E40E94F40D7E
:1009F00018160CF023C1A7019601C701B6010E9489
:100A0000F90D2B013C01A5019401C501B4010E941F
:100A1000F90D6D837E838F83988721E133E243E074
:100A200050E4C701B6010E94F90D29E134E849E21A
:100A300052E40E942F0C69837A838B839C8326E186
:100A40003BE442E251E4C501B4010E94F90D9B016F
:100A5000AC0169817A818B819C810E94300C698311
:100A60007A838B839C8328E436E246E65EEBC701FB
:100A7000B6010E94F90DA50194010E94F90D9B0198
:100A8000AC0169817A818B819C810E94300C6983E1
:100A90007A838B839C8320EE3FE040EE5BEBC301C7
:100AA000B2010E94F90D9B01AC0169817A818B81B1
:100AB0009C810E94300C69837A838B839C8328EF0E
:100AC00037E840E65DEB6D817E818F8198850E94DD
:100AD000F90D9B01AC0169817A818B819C810E9417
:100AE000300C69837A838B839C832CEA3DE041EA56
:100AF0005AE3C301B2010E94F90DA50194010E94BD
:100B0000F90D9B01AC0169817A818B819C810E94E6
:100B1000300C69837A838B839C8328EC3FE84FE514
:100B20005AE3C701B6010E94F90D2D813E814F8124
:100B300058850E94F90D9B01AC0169817A818B81F6
:100B40009C810E94300C69837A838B839C8321EF84
:100B50003BE845E056EBC301B2010E94F90D2D813F
:100B60003E814F8158850E94F90D9B01AC0169813E
:100B70007A818B819C810E94300C2B013C0120E00A
:100B800030E040E551E4C501B4010E949C0C87FFB0
:100B900088C020E030E040EA52E4C701B6010E947C
:100BA000F40D87FD7EC020E030E040EE52E4C70146
:100BB000B6010E949C0C18160CF4BDC0A50194014E
:100BC00060E070E080E591E40E942F0C20E030E0CE
:100BD00040E85EE30E94F90D4B015C0120E030E04B
:100BE0004EEB52E4C701B6010E942F0C6B017C0151
:100BF00020E030E0A9010E94F40D18160CF048C066
:100C0000A701960160E070E088E891E40E942F0C53
:100C10002EE33DEE40E75DE30E94F90D0E946C0E6D
:100C20009B01AC01C501B4010E94F90D9B01AC010F
:100C3000C301B2010E942F0C2B013C01011110C015
:100C400020E030E040E052E4C301B2010E942F0CEA
:100C500026E838E34EE05FE30E94F90D2B013C01EA
:100C6000C301B20128960FB6F894DEBF0FBECDBF08
:100C7000DF91CF910F91FF90EF90DF90CF90BF90D9
:100C8000AF909F908F907F906F905F904F9008955E
:100C900020E030E048E851E4C701B6010E94300C82
:100CA000B7CF20E030E04AEA52E4C501B4010E9427
:100CB000F40D18161CF620E030E040EA52E4C701BB
:100CC000B6010E94F40D87FDB9CF20E030E04EEA76
:100CD00052E4C701B6010E949C0C18160CF4AECF6A
:100CE00020E030E04AEA52E4C501B4010E942F0C32
:100CF0002DEC3CEC4CEC5DE30E94F90D4B015C01EA
:100D0000A701960160E070E08EEA92E40E942F0C49
:100D10002DEC3CEC4CE45EE30E94F90D9B01AC0130
:100D2000C501B4010E94F90D9B01AC01C301B201E0
:100D30000E94300C81CF20E030E04AEA52E4C50145
:100D4000B4010E94F40D18160CF4BFCF77CFFB014D
:100D500001900020E9F73197AF01461B570BDC01EA
:100D6000ED91FC910280F381E02D0994CF93DF9304
:100D70000E945204EC016EE171E087E491E00E9470
:100D8000A7068C0F9D1FDF91CF9108958F929F92A0
:100D9000AF92BF92EF92FF920F931F93CF93DF9387
:100DA000CDB7DEB7A1970FB6F894DEBF0FBECDBFAB
:100DB0007C01FA01CB0119A2223008F42AE08E014D
:100DC0000F5D1F4F822E912CB12CA12CBF01A501CC
:100DD00094010E94C60EF901CA016A300CF5605DEB
:100DE000D8016E938D01232B242B252B79F790E0CE
:100DF00080E0109721F0BD01C7010E94A706A196CF
:100E00000FB6F894DEBF0FBECDBFDF91CF911F911B
:100E10000F91FF90EF90BF90AF909F908F900895AB
:100E2000695CDECF2F923F924F925F926F927F92DA
:100E30008F929F92AF92BF92CF92DF92EF92FF92EA
:100E40001F93CF93DF93EC016A017B01722EAB01FC
:100E50009601CB01B6010E94AC0E61E271E08111F6
:100E600026C046015701E894B7F82FEF3FEF4FE750
:100E70005FE7C501B4010E94AC0E81110CC02FEFD9
:100E80003FEF4FE75FE7C501B4010E949C0C65E2AC
:100E900071E0181664F02FEF3FEF4FE75FE4C701F2
:100EA000B6010E94F40D1816B4F469E271E0CE01A7
:100EB000DF91CF911F91FF90EF90DF90CF90BF9087
:100EC000AF909F908F907F906F905F904F903F90EA
:100ED0002F900C94A7062FEF3FEF4FE75FECC70171
:100EE000B6010E949C0C87FDE0CF20E030E0A90114
:100EF000C701B6010E949C0C312C212C87FF0DC02C
:100F0000E881F9810190F081E02D6DE2CE01099533
:100F10001C01F7FAF094F7F8F09410E060E070E04C
:100F200080E09FE3711641F020E030E040E251E4C0
:100F30000E94A10C1F5FF6CFA70196010E94300C02
:100F40002B013C010E94130D4B015C012AE0BC0106
:100F5000A401CE010E94C6067C01E20CF31C112301
:100F6000E1F1C501B4010E94420D9B01AC01C30136
:100F7000B2010E942F0C4B015C01E881F9810190C4
:100F8000F081E02D6EE2CE010995E80EF91E1150B8
:100F900020F120E030E040E251E4C501B4010E94BC
:100FA000F90D2B013C010E94130D4B01B12CA12C1A
:100FB0002AE0B501A401CE010E94C606E80EF91E82
:100FC000C501B4010E94420D9B01AC01C301B201F5
:100FD0000E942F0C4B015C01DACFC701DF91CF914A
:100FE0001F91FF90EF90DF90CF90BF90AF909F90B8
:100FF0008F907F906F905F904F903F902F900895CB
:10100000CF93DF93EC0160E08E810E94820161E06A
:101010008E810E94820160E08E810E9482018BE8B5
:1010200091E00197F1F7DF91CF910895CF92DF9290
:10103000EF92FF920F931F93CF93DF936C017C018C
:1010400087E0E80EF11CD0E0C0E0062F10E0B80108
:101050000C2E02C0759567950A94E2F76170F7014E
:1010600081917F010E9482012196C430D10579F7D8
:10107000C601DF91CF911F910F91FF90EF90DF900C
:10108000CF900C940008CF92DF92EF92FF920F93D3
:101090001F93CF93DF93EC01F62E642F8C810E9477
:1010A00082018D818F3F19F060E00E9482010F2D37
:1010B00010E08F8584FF25C06E0187E0C80ED11C2B
:1010C000F12CE12CB8010E2C02C0759567950A949D
:1010D000E2F76170F60181916F010E948201FFEFDA
:1010E000EF1AFF0A88E0E816F10461F7CE01DF91FC
:1010F000CF911F910F91FF90EF90DF90CF900C94C4
:101100000008B80184E0759567958A95E1F7CE01EE
:101110000E9416086F2DCE01DF91CF911F910F9184
:10112000FF90EF90DF90CF900C94160840E0682F6E
:1011300084EE91E00C944308CF93DF93823029F43E
:101140009091F30198609093F3018093F7011092CE
:10115000F80180E48093F90180E18093FA0180E551
:101160008093FB0161E08091E8010E94CE018091B3
:10117000E9018F3F19F061E00E94CE0161E08091AA
:10118000EA010E94CE01C4EED1E09E01245E31400E
:101190008091F30184FD0BC084E090E02196281734
:1011A000390744F461E08E810E94CE01EECF88E0E1
:1011B00090E0F4CF8BE39DE00197F1F760E0809140
:1011C000E8010E94820160E08091EA010E948201B0
:1011D0008091E9018F3F19F060E00E9482018091C7
:1011E000F30184FD39C063E084EE91E00E941608AB
:1011F000CBE4D6E4CE010197F1F763E084EE91E011
:101200000E9416082197F1F763E084EE91E00E94B6
:10121000160883E592E00197F1F762E084EE91E031
:101220000E9416088091F30180620E94960884E073
:101230008093F4018CE00E94960881E00E94960859
:101240008BE39FE10197F1F782E08093F50186E05F
:10125000DF91CF910C94960880620E9496088BE4EF
:1012600096E40197F1F78091F30180620E9496085D
:1012700083E592E00197F1F78091F30180620E948B
:101280009608D0CF9091F701691710F06FEF690FB2
:10129000E62FF0E0EC51FE4F9489890F80680C94A2
:1012A000960841E00E94430881E090E008951F9273
:1012B0000F920FB60F9211242F933F938F939F930A
:1012C000AF93BF938091430190914401A091450158
:1012D000B091460130913E0123E0230F2D3758F5A0
:1012E0000196A11DB11D20933E018093430190936F
:1012F0004401A0934501B093460180913F01909134
:101300004001A0914101B09142010196A11DB11D82
:1013100080933F0190934001A0934101B09342011B
:10132000BF91AF919F918F913F912F910F900FBEE1
:101330000F901F90189526E8230F0296A11DB11D4E
:10134000D2CF1F920F920FB60F9211242F933F937B
:101350004F935F936F937F938F939F93AF93BF93BD
:10136000EF93FF9387E491E00E94E303FF91EF91F5
:10137000BF91AF919F918F917F916F915F914F91AD
:101380003F912F910F900FBE0F901F9018951F92B5
:101390000F920FB60F9211242F938F939F93EF9379
:1013A000FF93E0915701F09158018081E0915D0138
:1013B000F0915E0182FD1BC09081809160018F5F82
:1013C0008F7320916101821741F0E0916001F0E09C
:1013D000E95BFE4F958F80936001FF91EF919F91A4
:1013E0008F912F910F900FBE0F901F9018958081B5
:1013F000F4CFE7E4F1E01382128288EE93E0A0E0FC
:10140000B0E084839583A683B78384E091E09183E1
:10141000808385EC90E09587848784EC90E09787C3
:10142000868780EC90E0918B808B81EC90E0938BB1
:10143000828B82EC90E0958B848B86EC90E0978B8E
:10144000868B118E128E138E148EACEFB1E086E077
:1014500015968C93159786E116968C931697ECE16A
:10146000F1E0E4911796EC931797E8E0F1E0E4914E
:101470001896EC93189740E85EE360E070E01D96E4
:101480004D935D936D937C935097E4EEF1E013825E
:10149000128286E191E0918380838CE084838FEFD8
:1014A00085838BE0868385E0878384E0808783E083
:1014B000818782E0828713861486158616861786B2
:1014C00081E00C949C08CF93DF93CDB7DEB72897CB
:1014D0000FB6F894DEBF0FBECDBF789484B582609E
:1014E00084BD84B5816084BD85B5826085BD85B5C8
:1014F000816085BD80916E00816080936E00109246
:1015000081008091810082608093810080918100C0
:101510008160809381008091800081608093800051
:101520008091B10084608093B1008091B0008160AF
:101530008093B00080917A00846080937A008091DB
:101540007A00826080937A0080917A008160809333
:101550007A0080917A00806880937A001092C100AE
:10156000E0915701F091580182E08083E0915301AE
:10157000F09154011082E0915501F09156018FECE9
:10158000808310925F01E0915B01F0915C0186E045
:101590008083E0915901F0915A01808180618083BC
:1015A000E0915901F0915A01808188608083E09137
:1015B0005901F0915A01808180688083E09159013E
:1015C000F0915A0180818F7D808388E690E00E94AF
:1015D000B60662E0809101020E94CE012FB7F89416
:1015E0008091430190914401A0914501B091460141
:1015F0002FBF805D9740A109B109809305029093A8
:101600000602A0930702B093080287E380930E02BC
:1016100082E00E949C086DE271E084EE91E00E94FD
:10162000A70661E080E00E94420963E371E084EE76
:1016300091E00E94A70660E08BE00E94420969E306
:1016400071E084EE91E00E94A70661E08BE00E94C9
:1016500042096CE371E084EE91E00E94A70660ED20
:1016600077E080E090E00E9424020E9456028823E6
:1016700051F0809102028B3030F08D3058F085515E
:10168000823008F467C0C12CD12C20ECE22E2FE769
:10169000F22E1EC06091FD0170E090E080E00E949B
:1016A000440D2DEC3CEC4CEC5DE30E94F90D6B011C
:1016B0007C016091FC0170E090E080E00E94440DAC
:1016C0009B01AC01C701B6010E94300C6B017C018B
:1016D0000E945602412C512C90EC692E9FE7792EE6
:1016E000882329F080E00E94C0002B013C010E9469
:1016F0005602882309F440C081E00E94C0004B01DB
:101700005C01A7019601C701B6010E94AC0E8111D0
:1017100010C0A3019201C301B2010E94AC0E81115D
:1017200008C0A5019401C501B4010E94AC0E882334
:1017300051F180EB90E00E94B60680E090E0892BAA
:1017400009F48DCF0E94CF03882309F488CF0E942B
:10175000000085CF6091FC017091FD01762767271D
:10176000762790E080E00E94420D2DEC3CEC4CECA2
:101770005DE30E94F90DAACF812C912C80ECA82E5C
:101780008FE7B82EBECF01E0A7019601C501B401D5
:101790000E94910469837A838B839C8300E0A70174
:1017A0009601C301B2010E9491046D837E838F83F1
:1017B000988785EA90E00E94520422E0B701A601D2
:1017C00087E491E00E94120784E990E00E945204AD
:1017D00022E0B301A20187E491E00E9412078FE8A2
:1017E00090E00E94520422E0B501A40187E491E058
:1017F0000E9412078DE790E00E94520422E04D8182
:101800005E816F81788587E491E00E94120788E706
:1018100090E00E94520422E049815A816B817C81D0
:1018200087E491E00E94120784E790E00E94B606E8
:1018300060E086E00E94420921E0B501A40184EE47
:1018400091E00E94120761E086E00E94420921E0D7
:10185000B701A60184EE91E00E9412076ECF5058A6
:10186000BB27AA270E94470C0C94BA0D0E94AC0D0E
:1018700038F00E94B30D20F039F49F3F19F426F49C
:101880000C94A90D0EF4E095E7FB0C94A30DE92F41
:101890000E94CB0D58F3BA176207730784079507A8
:1018A00020F079F4A6F50C94ED0D0EF4E0950B2ED6
:1018B000BA2FA02D0B01B90190010C01CA01A001A2
:1018C0001124FF27591B99F0593F50F4503E68F1FD
:1018D0001A16F040A22F232F342F4427585FF3CF3E
:1018E000469537952795A795F0405395C9F77EF40F
:1018F0001F16BA0B620B730B840BBAF09150A1F058
:10190000FF0FBB1F661F771F881FC2F70EC0BA0FDD
:10191000621F731F841F48F4879577956795B79565
:10192000F7959E3F08F0B0CF9395880F08F0992760
:10193000EE0F9795879508950E947F0D08F481E03A
:1019400008950E94B50C0C94BA0D0E94B30D58F086
:101950000E94AC0D40F029F45F3F29F00C94A30DD8
:1019600051110C94EE0D0C94A90D0E94CB0D68F34F
:101970009923B1F3552391F3951B550BBB27AA2748
:1019800062177307840738F09F5F5F4F220F331F82
:10199000441FAA1FA9F335D00E2E3AF0E0E832D04A
:1019A00091505040E695001CCAF72BD0FE2F29D04D
:1019B000660F771F881FBB1F261737074807AB071F
:1019C000B0E809F0BB0B802DBF01FF2793585F4F94
:1019D0003AF09E3F510578F00C94A30D0C94EE0D57
:1019E0005F3FE4F3983ED4F3869577956795B79576
:1019F000F7959F5FC9F7880F911D9695879597F981
:101A00000895E1E0660F771F881FBB1F62177307F9
:101A10008407BA0720F0621B730B840BBA0BEE1F0E
:101A200088F7E09508950E94D30D88F09F5798F0AD
:101A3000B92F9927B751B0F0E1F0660F771F881FD3
:101A4000991F1AF0BA95C9F714C0B13091F00E94ED
:101A5000ED0DB1E008950C94ED0D672F782F8827D8
:101A6000B85F39F0B93FCCF3869577956795B39514
:101A7000D9F73EF490958095709561957F4F8F4F83
:101A80009F4F0895E89409C097FB3EF49095809588
:101A9000709561957F4F8F4F9F4F9923A9F0F92F34
:101AA00096E9BB279395F695879577956795B795B2
:101AB000F111F8CFFAF4BB0F11F460FF1BC06F5F98
:101AC0007F4F8F4F9F4F16C0882311F096E911C0AA
:101AD000772321F09EE8872F762F05C0662371F0CB
:101AE00096E8862F70E060E02AF09A95660F771FDF
:101AF000881FDAF7880F9695879597F90895990FBB
:101B00000008550FAA0BE0E8FEEF16161706E807C7
:101B1000F907C0F012161306E407F50798F0621BE8
:101B2000730B840B950B39F40A2661F0232B242BBD
:101B3000252B21F408950A2609F4A140A6958FEFDC
:101B4000811D811D089597F99F6780E870E060E02E
:101B500008959FEF80EC089500240A941616170646
:101B600018060906089500240A941216130614068E
:101B700005060895092E0394000C11F4882352F0F1
:101B8000BB0F40F4BF2B11F460FF04C06F5F7F4FA9
:101B90008F4F9F4F089557FD9058440F551F59F090
:101BA0005F3F71F04795880F97FB991F61F09F3F4A
:101BB00079F087950895121613061406551FF2CF73
:101BC0004695F1DF08C0161617061806991FF1CFC3
:101BD00086957105610508940895E894BB276627EA
:101BE0007727CB0197F908950E947F0D08F48FEFB6
:101BF00008950E940C0E0C94BA0D0E94AC0D38F0A2
:101C00000E94B30D20F0952311F00C94A30D0C94B9
:101C1000A90D11240C94EE0D0E94CB0D70F3959F2D
:101C2000C1F3950F50E0551F629FF001729FBB27D3
:101C3000F00DB11D639FAA27F00DB11DAA1F649F6F
:101C40006627B00DA11D661F829F2227B00DA11D22
:101C5000621F739FB00DA11D621F839FA00D611DA8
:101C6000221F749F3327A00D611D231F849F600DC9
:101C7000211D822F762F6A2F11249F5750409AF0F2
:101C8000F1F088234AF0EE0FFF1FBB1F661F771F7E
:101C9000881F91505040A9F79E3F510580F00C9449
:101CA000A30D0C94EE0D5F3FE4F3983ED4F38695BC
:101CB00077956795B795F795E7959F5FC1F7FE2BE9
:101CC000880F911D9695879597F9089519F416F444
:101CD0000C94A90D0C94B10E0E94D30DB8F3992366
:101CE000C9F3B6F39F57550B87FF0E94BF0E002420
:101CF000A0E640EA900180585695979528F4805CBC
:101D0000660F771F881F20F026173707480730F423
:101D1000621B730B840B202931294A2BA69517943B
:101D20000794202531254A2758F7660F771F881F0B
:101D300020F026173707480730F4620B730B840B2B
:101D4000200D311D411DA09581F7B901842F9158B7
:101D5000880F9695879508950E947F0D880B990BA3
:101D600008959F3F31F0915020F4879577956795BE
:101D7000B795880F911D9695879597F9089591507D
:101D80005040660F771F881FD2F70895A1E21A2EE0
:101D9000AA1BBB1BFD010DC0AA1FBB1FEE1FFF1F0F
:101DA000A217B307E407F50720F0A21BB30BE40B5F
:101DB000F50B661F771F881F991F1A9469F76095A6
:101DC0007095809590959B01AC01BD01CF01089560
:101DD000EE0FFF1F0590F491E02D0994F894FFCFCA
:101DE000000000000504650392036D04C303A10312
:101DF000B50300000000510965038E048D040D0A2F
:101E0000006E616E00696E66006F76660054656DE7
:0E1E1000703A0048756D693A00462E002500B4
:00000001FF
